{
  "_format": "hh-sol-artifact-1",
  "contractName": "TimeCapsule",
  "sourceName": "contracts/TimeCapsule.sol",
  "abi": [
    {
      "anonymous": false,
      "inputs": [
        {
          "indexed": true,
          "internalType": "address",
          "name": "user",
          "type": "address"
        },
        {
          "indexed": true,
          "internalType": "uint256",
          "name": "messageIndex",
          "type": "uint256"
        },
        {
          "indexed": false,
          "internalType": "uint256",
          "name": "unlockTime",
          "type": "uint256"
        }
      ],
      "name": "MessageStored",
      "type": "event"
    },
    {
      "inputs": [],
      "name": "getAllMessages",
      "outputs": [
        {
          "components": [
            {
              "internalType": "string",
              "name": "content",
              "type": "string"
            },
            {
              "internalType": "uint256",
              "name": "unlockTime",
              "type": "uint256"
            },
            {
              "internalType": "uint256",
              "name": "createdAt",
              "type": "uint256"
            }
          ],
          "internalType": "struct TimeCapsule.Message[]",
          "name": "",
          "type": "tuple[]"
        }
      ],
      "stateMutability": "view",
      "type": "function"
    },
    {
      "inputs": [
        {
          "internalType": "uint256",
          "name": "index",
          "type": "uint256"
        }
      ],
      "name": "getMessage",
      "outputs": [
        {
          "components": [
            {
              "internalType": "string",
              "name": "content",
              "type": "string"
            },
            {
              "internalType": "uint256",
              "name": "unlockTime",
              "type": "uint256"
            },
            {
              "internalType": "uint256",
              "name": "createdAt",
              "type": "uint256"
            }
          ],
          "internalType": "struct TimeCapsule.Message",
          "name": "",
          "type": "tuple"
        }
      ],
      "stateMutability": "view",
      "type": "function"
    },
    {
      "inputs": [],
      "name": "getMessageCount",
      "outputs": [
        {
          "internalType": "uint256",
          "name": "",
          "type": "uint256"
        }
      ],
      "stateMutability": "view",
      "type": "function"
    },
    {
      "inputs": [],
      "name": "getUnlockedMessages",
      "outputs": [
        {
          "components": [
            {
              "internalType": "string",
              "name": "content",
              "type": "string"
            },
            {
              "internalType": "uint256",
              "name": "unlockTime",
              "type": "uint256"
            },
            {
              "internalType": "uint256",
              "name": "createdAt",
              "type": "uint256"
            }
          ],
          "internalType": "struct TimeCapsule.Message[]",
          "name": "",
          "type": "tuple[]"
        }
      ],
      "stateMutability": "view",
      "type": "function"
    },
    {
      "inputs": [
        {
          "internalType": "string",
          "name": "_content",
          "type": "string"
        },
        {
          "internalType": "uint256",
          "name": "_unlockTime",
          "type": "uint256"
        }
      ],
      "name": "storeMessage",
      "outputs": [],
      "stateMutability": "nonpayable",
      "type": "function"
    }
  ],
  "bytecode": "0x608060405234801561001057600080fd5b50610ac4806100206000396000f3fe608060405234801561001057600080fd5b50600436106100575760003560e01c8063319339161461005c57806353f5e3801461007f57806386f79edb1461009457806390ab86d2146100b4578063cbdfce26146100bc575b600080fd5b336000908152602081905260409020546040519081526020015b60405180910390f35b6100876100d1565b6040516100769190610787565b6100a76100a23660046107e9565b6101df565b6040516100769190610802565b61008761034d565b6100cf6100ca366004610832565b6105a9565b005b33600090815260208181526040808320805482518185028101850190935280835260609492939192909184015b828210156101d65783829060005260206000209060030201604051806060016040529081600082018054610131906108e7565b80601f016020809104026020016040519081016040528092919081815260200182805461015d906108e7565b80156101aa5780601f1061017f576101008083540402835291602001916101aa565b820191906000526020600020905b81548152906001019060200180831161018d57829003601f168201915b5050505050815260200160018201548152602001600282015481525050815260200190600101906100fe565b50505050905090565b61020360405180606001604052806060815260200160008152602001600081525090565b3360009081526020819052604090205482106102665760405162461bcd60e51b815260206004820152601b60248201527f4d65737361676520696e646578206f7574206f6620626f756e6473000000000060448201526064015b60405180910390fd5b33600090815260208190526040902080548390811061028757610287610921565b90600052602060002090600302016040518060600160405290816000820180546102b0906108e7565b80601f01602080910402602001604051908101604052809291908181526020018280546102dc906108e7565b80156103295780601f106102fe57610100808354040283529160200191610329565b820191906000526020600020905b81548152906001019060200180831161030c57829003601f168201915b50505050508152602001600182015481526020016002820154815250509050919050565b3360009081526020819052604081205460609190815b818110156103c65733600090815260208190526040902080544291908390811061038f5761038f610921565b906000526020600020906003020160010154116103b457826103b08161094d565b9350505b806103be8161094d565b915050610363565b5060008267ffffffffffffffff8111156103e2576103e261081c565b60405190808252806020026020018201604052801561043757816020015b61042460405180606001604052806060815260200160008152602001600081525090565b8152602001906001900390816104005790505b5090506000805b8381101561059f5733600090815260208190526040902080544291908390811061046a5761046a610921565b9060005260206000209060030201600101541161058d573360009081526020819052604090208054829081106104a2576104a2610921565b90600052602060002090600302016040518060600160405290816000820180546104cb906108e7565b80601f01602080910402602001604051908101604052809291908181526020018280546104f7906108e7565b80156105445780601f1061051957610100808354040283529160200191610544565b820191906000526020600020905b81548152906001019060200180831161052757829003601f168201915b505050505081526020016001820154815260200160028201548152505083838151811061057357610573610921565b602002602001018190525081806105899061094d565b9250505b806105978161094d565b91505061043e565b5090949350505050565b4281116106025760405162461bcd60e51b815260206004820152602160248201527f556e6c6f636b2074696d65206d75737420626520696e207468652066757475726044820152606560f81b606482015260840161025d565b60008251116106535760405162461bcd60e51b815260206004820152601760248201527f4d6573736167652063616e6e6f7420626520656d707479000000000000000000604482015260640161025d565b336000908152602081815260408083208151606081018352868152808401869052429281019290925280546001810182559084529190922082516003909202019081906106a090826109b5565b5060208281015160018084019190915560409384015160029093019290925533600090815290819052918220546106d79190610a75565b905080336001600160a01b03167fcdd5497e8b0ac96fc637cf83fda46e64bfd1943c83caa18bcea20354dc3934e78460405161071591815260200190565b60405180910390a3505050565b6000815160608452805180606086015260005b818110156107525760208184018101516080888401015201610735565b5060006080828701015260208401516020860152604084015160408601526080601f19601f8301168601019250505092915050565b6000602080830181845280855180835260408601915060408160051b870101925083870160005b828110156107dc57603f198886030184526107ca858351610722565b945092850192908501906001016107ae565b5092979650505050505050565b6000602082840312156107fb57600080fd5b5035919050565b6020815260006108156020830184610722565b9392505050565b634e487b7160e01b600052604160045260246000fd5b6000806040838503121561084557600080fd5b823567ffffffffffffffff8082111561085d57600080fd5b818501915085601f83011261087157600080fd5b8135818111156108835761088361081c565b604051601f8201601f19908116603f011681019083821181831017156108ab576108ab61081c565b816040528281528860208487010111156108c457600080fd5b826020860160208301376000602093820184015298969091013596505050505050565b600181811c908216806108fb57607f821691505b60208210810361091b57634e487b7160e01b600052602260045260246000fd5b50919050565b634e487b7160e01b600052603260045260246000fd5b634e487b7160e01b600052601160045260246000fd5b60006001820161095f5761095f610937565b5060010190565b601f8211156109b057600081815260208120601f850160051c8101602086101561098d5750805b601f850160051c820191505b818110156109ac57828155600101610999565b5050505b505050565b815167ffffffffffffffff8111156109cf576109cf61081c565b6109e3816109dd84546108e7565b84610966565b602080601f831160018114610a185760008415610a005750858301515b600019600386901b1c1916600185901b1785556109ac565b600085815260208120601f198616915b82811015610a4757888601518255948401946001909101908401610a28565b5085821015610a655787850151600019600388901b60f8161c191681555b5050505050600190811b01905550565b81810381811115610a8857610a88610937565b9291505056fea2646970667358221220b4a1caaef567cecf96c7f8ae5a218bffed4bef8796ae507f48cea3cdcb6af7c264736f6c63430008140033",
  "linkReferences": {},
  "deployedLinkReferences": {}
}